{
  "_format": "hh-sol-artifact-1",
  "contractName": "MyEpicNFT",
  "sourceName": "contracts/MyEpicNFT.sol",
  "abi": [
    {
      "inputs": [],
      "stateMutability": "nonpayable",
      "type": "constructor"
    },
    {
      "anonymous": false,
      "inputs": [
        {
          "indexed": true,
          "internalType": "address",
          "name": "owner",
          "type": "address"
        },
        {
          "indexed": true,
          "internalType": "address",
          "name": "approved",
          "type": "address"
        },
        {
          "indexed": true,
          "internalType": "uint256",
          "name": "tokenId",
          "type": "uint256"
        }
      ],
      "name": "Approval",
      "type": "event"
    },
    {
      "anonymous": false,
      "inputs": [
        {
          "indexed": true,
          "internalType": "address",
          "name": "owner",
          "type": "address"
        },
        {
          "indexed": true,
          "internalType": "address",
          "name": "operator",
          "type": "address"
        },
        {
          "indexed": false,
          "internalType": "bool",
          "name": "approved",
          "type": "bool"
        }
      ],
      "name": "ApprovalForAll",
      "type": "event"
    },
    {
      "anonymous": false,
      "inputs": [
        {
          "indexed": false,
          "internalType": "address",
          "name": "sender",
          "type": "address"
        },
        {
          "indexed": false,
          "internalType": "uint256",
          "name": "tokenId",
          "type": "uint256"
        }
      ],
      "name": "NewEpicNFTMinted",
      "type": "event"
    },
    {
      "anonymous": false,
      "inputs": [
        {
          "indexed": true,
          "internalType": "address",
          "name": "from",
          "type": "address"
        },
        {
          "indexed": true,
          "internalType": "address",
          "name": "to",
          "type": "address"
        },
        {
          "indexed": true,
          "internalType": "uint256",
          "name": "tokenId",
          "type": "uint256"
        }
      ],
      "name": "Transfer",
      "type": "event"
    },
    {
      "inputs": [
        {
          "internalType": "address",
          "name": "to",
          "type": "address"
        },
        {
          "internalType": "uint256",
          "name": "tokenId",
          "type": "uint256"
        }
      ],
      "name": "approve",
      "outputs": [],
      "stateMutability": "nonpayable",
      "type": "function"
    },
    {
      "inputs": [
        {
          "internalType": "address",
          "name": "owner",
          "type": "address"
        }
      ],
      "name": "balanceOf",
      "outputs": [
        {
          "internalType": "uint256",
          "name": "",
          "type": "uint256"
        }
      ],
      "stateMutability": "view",
      "type": "function"
    },
    {
      "inputs": [
        {
          "internalType": "uint256",
          "name": "tokenId",
          "type": "uint256"
        }
      ],
      "name": "getApproved",
      "outputs": [
        {
          "internalType": "address",
          "name": "",
          "type": "address"
        }
      ],
      "stateMutability": "view",
      "type": "function"
    },
    {
      "inputs": [
        {
          "internalType": "address",
          "name": "owner",
          "type": "address"
        },
        {
          "internalType": "address",
          "name": "operator",
          "type": "address"
        }
      ],
      "name": "isApprovedForAll",
      "outputs": [
        {
          "internalType": "bool",
          "name": "",
          "type": "bool"
        }
      ],
      "stateMutability": "view",
      "type": "function"
    },
    {
      "inputs": [],
      "name": "makeAnEpicNFT",
      "outputs": [],
      "stateMutability": "nonpayable",
      "type": "function"
    },
    {
      "inputs": [],
      "name": "name",
      "outputs": [
        {
          "internalType": "string",
          "name": "",
          "type": "string"
        }
      ],
      "stateMutability": "view",
      "type": "function"
    },
    {
      "inputs": [
        {
          "internalType": "uint256",
          "name": "tokenId",
          "type": "uint256"
        }
      ],
      "name": "ownerOf",
      "outputs": [
        {
          "internalType": "address",
          "name": "",
          "type": "address"
        }
      ],
      "stateMutability": "view",
      "type": "function"
    },
    {
      "inputs": [],
      "name": "randomImage",
      "outputs": [
        {
          "internalType": "string",
          "name": "",
          "type": "string"
        }
      ],
      "stateMutability": "nonpayable",
      "type": "function"
    },
    {
      "inputs": [],
      "name": "randomWord",
      "outputs": [
        {
          "internalType": "string",
          "name": "",
          "type": "string"
        }
      ],
      "stateMutability": "nonpayable",
      "type": "function"
    },
    {
      "inputs": [
        {
          "internalType": "address",
          "name": "from",
          "type": "address"
        },
        {
          "internalType": "address",
          "name": "to",
          "type": "address"
        },
        {
          "internalType": "uint256",
          "name": "tokenId",
          "type": "uint256"
        }
      ],
      "name": "safeTransferFrom",
      "outputs": [],
      "stateMutability": "nonpayable",
      "type": "function"
    },
    {
      "inputs": [
        {
          "internalType": "address",
          "name": "from",
          "type": "address"
        },
        {
          "internalType": "address",
          "name": "to",
          "type": "address"
        },
        {
          "internalType": "uint256",
          "name": "tokenId",
          "type": "uint256"
        },
        {
          "internalType": "bytes",
          "name": "data",
          "type": "bytes"
        }
      ],
      "name": "safeTransferFrom",
      "outputs": [],
      "stateMutability": "nonpayable",
      "type": "function"
    },
    {
      "inputs": [
        {
          "internalType": "address",
          "name": "operator",
          "type": "address"
        },
        {
          "internalType": "bool",
          "name": "approved",
          "type": "bool"
        }
      ],
      "name": "setApprovalForAll",
      "outputs": [],
      "stateMutability": "nonpayable",
      "type": "function"
    },
    {
      "inputs": [
        {
          "internalType": "bytes4",
          "name": "interfaceId",
          "type": "bytes4"
        }
      ],
      "name": "supportsInterface",
      "outputs": [
        {
          "internalType": "bool",
          "name": "",
          "type": "bool"
        }
      ],
      "stateMutability": "view",
      "type": "function"
    },
    {
      "inputs": [],
      "name": "symbol",
      "outputs": [
        {
          "internalType": "string",
          "name": "",
          "type": "string"
        }
      ],
      "stateMutability": "view",
      "type": "function"
    },
    {
      "inputs": [
        {
          "internalType": "uint256",
          "name": "tokenId",
          "type": "uint256"
        }
      ],
      "name": "tokenURI",
      "outputs": [
        {
          "internalType": "string",
          "name": "",
          "type": "string"
        }
      ],
      "stateMutability": "view",
      "type": "function"
    },
    {
      "inputs": [
        {
          "internalType": "address",
          "name": "from",
          "type": "address"
        },
        {
          "internalType": "address",
          "name": "to",
          "type": "address"
        },
        {
          "internalType": "uint256",
          "name": "tokenId",
          "type": "uint256"
        }
      ],
      "name": "transferFrom",
      "outputs": [],
      "stateMutability": "nonpayable",
      "type": "function"
    }
  ],
  "bytecode": "0x608060405260326008556032600955604051806101c001604052806040518060600160405280603981526020016200400860399139815260200160405180608001604052806047815260200162003ea9604791398152602001604051806060016040528060388152602001620040b06038913981526020016040518060600160405280603a815260200162003f94603a9139815260200160405180606001604052806035815260200162003ef060359139815260200160405180606001604052806035815260200162003ef060359139815260200160405180606001604052806035815260200162003f5f6035913981526020016040518060600160405280603a815260200162003f25603a913981526020016040518060600160405280603a815260200162003e35603a913981526020016040518060600160405280603a815260200162003e6f603a913981526020016040518060600160405280603a815260200162003fce603a913981526020016040518060600160405280603a815260200162004041603a913981526020016040518060600160405280603581526020016200407b6035913981526020016040518060600160405280603a8152602001620040e8603a9139815250600a90600e620001dc92919062000861565b506040518061028001604052806040518060400160405280600481526020017f69726f6e0000000000000000000000000000000000000000000000000000000081525081526020016040518060400160405280600481526020017f636f616c0000000000000000000000000000000000000000000000000000000081525081526020016040518060400160405280600581526020017f737472617700000000000000000000000000000000000000000000000000000081525081526020016040518060400160405280600681526020017f68756e746572000000000000000000000000000000000000000000000000000081525081526020016040518060400160405280600481526020017f736f6e670000000000000000000000000000000000000000000000000000000081525081526020016040518060400160405280600681526020017f666c6f776572000000000000000000000000000000000000000000000000000081525081526020016040518060400160405280600681526020017f6368616e6365000000000000000000000000000000000000000000000000000081525081526020016040518060400160405280600581526020017f677261696e00000000000000000000000000000000000000000000000000000081525081526020016040518060400160405280600381526020017f6d6179000000000000000000000000000000000000000000000000000000000081525081526020016040518060400160405280600381526020017f696365000000000000000000000000000000000000000000000000000000000081525081526020016040518060400160405280600481526020017f6d61696e0000000000000000000000000000000000000000000000000000000081525081526020016040518060400160405280600681526020017f67617264656e000000000000000000000000000000000000000000000000000081525081526020016040518060400160405280600681526020017f736561736f6e000000000000000000000000000000000000000000000000000081525081526020016040518060400160405280600581526020017f706974636800000000000000000000000000000000000000000000000000000081525081526020016040518060400160405280600681526020017f736572696573000000000000000000000000000000000000000000000000000081525081526020016040518060400160405280600481526020017f726964650000000000000000000000000000000000000000000000000000000081525081526020016040518060400160405280600481526020017f63616d650000000000000000000000000000000000000000000000000000000081525081526020016040518060400160405280600681526020017f616374697665000000000000000000000000000000000000000000000000000081525081526020016040518060400160405280600681526020017f686f6c6c6f77000000000000000000000000000000000000000000000000000081525081526020016040518060400160405280600581526020017f626c6f636b000000000000000000000000000000000000000000000000000000815250815250600b90601462000695929190620008c8565b50348015620006a357600080fd5b506040518060400160405280600981526020017f5261676861764e465400000000000000000000000000000000000000000000008152506040518060400160405280600281526020017f524a0000000000000000000000000000000000000000000000000000000000008152508160009080519060200190620007289291906200092f565b508060019080519060200190620007419291906200092f565b5050506200078f6040518060400160405280601e81526020017f54686973206973206d79204e465420636f6e74726163742e2057686f612100008152506200079560201b62000e8c1760201c565b62000b7a565b6200083581604051602401620007ac919062000a8e565b6040516020818303038152906040527f41304fac000000000000000000000000000000000000000000000000000000007bffffffffffffffffffffffffffffffffffffffffffffffffffffffff19166020820180517bffffffffffffffffffffffffffffffffffffffffffffffffffffffff83818316178352505050506200083860201b60201c565b50565b60008151905060006a636f6e736f6c652e6c6f679050602083016000808483855afa5050505050565b828054828255906000526020600020908101928215620008b5579160200282015b82811115620008b4578251829080519060200190620008a39291906200092f565b509160200191906001019062000882565b5b509050620008c49190620009c0565b5090565b8280548282559060005260206000209081019282156200091c579160200282015b828111156200091b5782518290805190602001906200090a9291906200092f565b5091602001919060010190620008e9565b5b5090506200092b9190620009c0565b5090565b8280546200093d9062000b04565b90600052602060002090601f016020900481019282620009615760008555620009ad565b82601f106200097c57805160ff1916838001178555620009ad565b82800160010185558215620009ad579182015b82811115620009ac5782518255916020019190600101906200098f565b5b509050620009bc9190620009e8565b5090565b5b80821115620009e45760008181620009da919062000a07565b50600101620009c1565b5090565b5b8082111562000a03576000816000905550600101620009e9565b5090565b50805462000a159062000b04565b6000825580601f1062000a29575062000a4a565b601f01602090049060005260206000209081019062000a499190620009e8565b5b50565b600062000a5a8262000ab2565b62000a66818562000abd565b935062000a7881856020860162000ace565b62000a838162000b69565b840191505092915050565b6000602082019050818103600083015262000aaa818462000a4d565b905092915050565b600081519050919050565b600082825260208201905092915050565b60005b8381101562000aee57808201518184015260208101905062000ad1565b8381111562000afe576000848401525b50505050565b6000600282049050600182168062000b1d57607f821691505b6020821081141562000b345762000b3362000b3a565b5b50919050565b7f4e487b7100000000000000000000000000000000000000000000000000000000600052602260045260246000fd5b6000601f19601f8301169050919050565b6132ab8062000b8a6000396000f3fe608060405234801561001057600080fd5b50600436106101005760003560e01c806370a0823111610097578063c87b56dd11610066578063c87b56dd146102ab578063de9d132f146102db578063e985e9c5146102e5578063f56841831461031557610100565b806370a082311461022557806395d89b4114610255578063a22cb46514610273578063b88d4fde1461028f57610100565b806323b872dd116100d357806323b872dd1461019f57806342842e0e146101bb57806351997aac146101d75780636352211e146101f557610100565b806301ffc9a71461010557806306fdde0314610135578063081812fc14610153578063095ea7b314610183575b600080fd5b61011f600480360381019061011a9190612248565b610333565b60405161012c9190612749565b60405180910390f35b61013d610415565b60405161014a9190612764565b60405180910390f35b61016d6004803603810190610168919061229a565b6104a7565b60405161017a91906126b9565b60405180910390f35b61019d6004803603810190610198919061220c565b6104ed565b005b6101b960048036038101906101b49190612106565b610605565b005b6101d560048036038101906101d09190612106565b610665565b005b6101df610685565b6040516101ec9190612764565b60405180910390f35b61020f600480360381019061020a919061229a565b6107c2565b60405161021c91906126b9565b60405180910390f35b61023f600480360381019061023a91906120a1565b610874565b60405161024c9190612944565b60405180910390f35b61025d61092c565b60405161026a9190612764565b60405180910390f35b61028d600480360381019061028891906121d0565b6109be565b005b6102a960048036038101906102a49190612155565b6109d4565b005b6102c560048036038101906102c0919061229a565b610a36565b6040516102d29190612764565b60405180910390f35b6102e3610b49565b005b6102ff60048036038101906102fa91906120ca565b610cc7565b60405161030c9190612749565b60405180910390f35b61031d610d5b565b60405161032a9190612764565b60405180910390f35b60007f80ac58cd000000000000000000000000000000000000000000000000000000007bffffffffffffffffffffffffffffffffffffffffffffffffffffffff1916827bffffffffffffffffffffffffffffffffffffffffffffffffffffffff191614806103fe57507f5b5e139f000000000000000000000000000000000000000000000000000000007bffffffffffffffffffffffffffffffffffffffffffffffffffffffff1916827bffffffffffffffffffffffffffffffffffffffffffffffffffffffff1916145b8061040e575061040d82610f25565b5b9050919050565b60606000805461042490612bc3565b80601f016020809104026020016040519081016040528092919081815260200182805461045090612bc3565b801561049d5780601f106104725761010080835404028352916020019161049d565b820191906000526020600020905b81548152906001019060200180831161048057829003601f168201915b5050505050905090565b60006104b282610f8f565b6004600083815260200190815260200160002060009054906101000a900473ffffffffffffffffffffffffffffffffffffffff169050919050565b60006104f8826107c2565b90508073ffffffffffffffffffffffffffffffffffffffff168373ffffffffffffffffffffffffffffffffffffffff161415610569576040517f08c379a000000000000000000000000000000000000000000000000000000000815260040161056090612904565b60405180910390fd5b8073ffffffffffffffffffffffffffffffffffffffff16610588610fda565b73ffffffffffffffffffffffffffffffffffffffff1614806105b757506105b6816105b1610fda565b610cc7565b5b6105f6576040517f08c379a00000000000000000000000000000000000000000000000000000000081526004016105ed906128a4565b60405180910390fd5b6106008383610fe2565b505050565b610616610610610fda565b8261109b565b610655576040517f08c379a000000000000000000000000000000000000000000000000000000000815260040161064c90612924565b60405180910390fd5b610660838383611130565b505050565b610680838383604051806020016040528060008152506109d4565b505050565b60606008600081548092919061069a90612c26565b919050555060006001600a8054905042336008546040516020016106c09392919061267c565b6040516020818303038152906040528051906020012060001c6106e39190612c9d565b6106ed9190612ad9565b9050600a8181548110610729577f4e487b7100000000000000000000000000000000000000000000000000000000600052603260045260246000fd5b90600052602060002001805461073e90612bc3565b80601f016020809104026020016040519081016040528092919081815260200182805461076a90612bc3565b80156107b75780601f1061078c576101008083540402835291602001916107b7565b820191906000526020600020905b81548152906001019060200180831161079a57829003601f168201915b505050505091505090565b6000806002600084815260200190815260200160002060009054906101000a900473ffffffffffffffffffffffffffffffffffffffff169050600073ffffffffffffffffffffffffffffffffffffffff168173ffffffffffffffffffffffffffffffffffffffff16141561086b576040517f08c379a0000000000000000000000000000000000000000000000000000000008152600401610862906128e4565b60405180910390fd5b80915050919050565b60008073ffffffffffffffffffffffffffffffffffffffff168273ffffffffffffffffffffffffffffffffffffffff1614156108e5576040517f08c379a00000000000000000000000000000000000000000000000000000000081526004016108dc90612864565b60405180910390fd5b600360008373ffffffffffffffffffffffffffffffffffffffff1673ffffffffffffffffffffffffffffffffffffffff168152602001908152602001600020549050919050565b60606001805461093b90612bc3565b80601f016020809104026020016040519081016040528092919081815260200182805461096790612bc3565b80156109b45780601f10610989576101008083540402835291602001916109b4565b820191906000526020600020905b81548152906001019060200180831161099757829003601f168201915b5050505050905090565b6109d06109c9610fda565b8383611397565b5050565b6109e56109df610fda565b8361109b565b610a24576040517f08c379a0000000000000000000000000000000000000000000000000000000008152600401610a1b90612924565b60405180910390fd5b610a3084848484611504565b50505050565b6060610a4182610f8f565b6000600660008481526020019081526020016000208054610a6190612bc3565b80601f0160208091040260200160405190810160405280929190818152602001828054610a8d90612bc3565b8015610ada5780601f10610aaf57610100808354040283529160200191610ada565b820191906000526020600020905b815481529060010190602001808311610abd57829003601f168201915b505050505090506000610aeb611560565b9050600081511415610b01578192505050610b44565b600082511115610b36578082604051602001610b1e9291906125f1565b60405160208183030381529060405292505050610b44565b610b3f84611577565b925050505b919050565b6000610b5560076115df565b90506000610b61610685565b90506000610b6d610d5b565b90506000610b9b8284604051602001610b87929190612615565b6040516020818303038152906040526115ed565b9050600081604051602001610bb0919061265a565b6040516020818303038152906040529050610bff6040518060400160405280601581526020017f0a2d2d2d2d2d2d2d2d2d2d2d2d2d2d2d2d2d2d2d2d0000000000000000000000815250610e8c565b610c0881610e8c565b610c466040518060400160405280601581526020017f2d2d2d2d2d2d2d2d2d2d2d2d2d2d2d2d2d2d2d2d0a0000000000000000000000815250610e8c565b610c5033866117ab565b610c5a85826117c9565b610c7d60405180606001604052806025815260200161321160259139863361183d565b610c8760076118dc565b7febb98688741ffa4c7589bf325de30cf7becb63de567842e1ccdb6cb949fdc82c3386604051610cb8929190612720565b60405180910390a15050505050565b6000600560008473ffffffffffffffffffffffffffffffffffffffff1673ffffffffffffffffffffffffffffffffffffffff16815260200190815260200160002060008373ffffffffffffffffffffffffffffffffffffffff1673ffffffffffffffffffffffffffffffffffffffff16815260200190815260200160002060009054906101000a900460ff16905092915050565b606060096000815480929190610d7090612c26565b91905055506000600b805490504233600954604051602001610d949392919061267c565b6040516020818303038152906040528051906020012060001c610db79190612c9d565b9050600b8181548110610df3577f4e487b7100000000000000000000000000000000000000000000000000000000600052603260045260246000fd5b906000526020600020018054610e0890612bc3565b80601f0160208091040260200160405190810160405280929190818152602001828054610e3490612bc3565b8015610e815780601f10610e5657610100808354040283529160200191610e81565b820191906000526020600020905b815481529060010190602001808311610e6457829003601f168201915b505050505091505090565b610f2281604051602401610ea09190612764565b6040516020818303038152906040527f41304fac000000000000000000000000000000000000000000000000000000007bffffffffffffffffffffffffffffffffffffffffffffffffffffffff19166020820180517bffffffffffffffffffffffffffffffffffffffffffffffffffffffff83818316178352505050506118f2565b50565b60007f01ffc9a7000000000000000000000000000000000000000000000000000000007bffffffffffffffffffffffffffffffffffffffffffffffffffffffff1916827bffffffffffffffffffffffffffffffffffffffffffffffffffffffff1916149050919050565b610f988161191b565b610fd7576040517f08c379a0000000000000000000000000000000000000000000000000000000008152600401610fce906128e4565b60405180910390fd5b50565b600033905090565b816004600083815260200190815260200160002060006101000a81548173ffffffffffffffffffffffffffffffffffffffff021916908373ffffffffffffffffffffffffffffffffffffffff160217905550808273ffffffffffffffffffffffffffffffffffffffff16611055836107c2565b73ffffffffffffffffffffffffffffffffffffffff167f8c5be1e5ebec7d5bd14f71427d1e84f3dd0314c0f7b2291e5b200ac8c7c3b92560405160405180910390a45050565b6000806110a7836107c2565b90508073ffffffffffffffffffffffffffffffffffffffff168473ffffffffffffffffffffffffffffffffffffffff1614806110e957506110e88185610cc7565b5b8061112757508373ffffffffffffffffffffffffffffffffffffffff1661110f846104a7565b73ffffffffffffffffffffffffffffffffffffffff16145b91505092915050565b8273ffffffffffffffffffffffffffffffffffffffff16611150826107c2565b73ffffffffffffffffffffffffffffffffffffffff16146111a6576040517f08c379a000000000000000000000000000000000000000000000000000000000815260040161119d906127e4565b60405180910390fd5b600073ffffffffffffffffffffffffffffffffffffffff168273ffffffffffffffffffffffffffffffffffffffff161415611216576040517f08c379a000000000000000000000000000000000000000000000000000000000815260040161120d90612824565b60405180910390fd5b611221838383611987565b61122c600082610fe2565b6001600360008573ffffffffffffffffffffffffffffffffffffffff1673ffffffffffffffffffffffffffffffffffffffff168152602001908152602001600020600082825461127c9190612ad9565b925050819055506001600360008473ffffffffffffffffffffffffffffffffffffffff1673ffffffffffffffffffffffffffffffffffffffff16815260200190815260200160002060008282546112d391906129f8565b92505081905550816002600083815260200190815260200160002060006101000a81548173ffffffffffffffffffffffffffffffffffffffff021916908373ffffffffffffffffffffffffffffffffffffffff160217905550808273ffffffffffffffffffffffffffffffffffffffff168473ffffffffffffffffffffffffffffffffffffffff167fddf252ad1be2c89b69c2b068fc378daa952ba7f163c4a11628f55a4df523b3ef60405160405180910390a461139283838361198c565b505050565b8173ffffffffffffffffffffffffffffffffffffffff168373ffffffffffffffffffffffffffffffffffffffff161415611406576040517f08c379a00000000000000000000000000000000000000000000000000000000081526004016113fd90612844565b60405180910390fd5b80600560008573ffffffffffffffffffffffffffffffffffffffff1673ffffffffffffffffffffffffffffffffffffffff16815260200190815260200160002060008473ffffffffffffffffffffffffffffffffffffffff1673ffffffffffffffffffffffffffffffffffffffff16815260200190815260200160002060006101000a81548160ff0219169083151502179055508173ffffffffffffffffffffffffffffffffffffffff168373ffffffffffffffffffffffffffffffffffffffff167f17307eab39ab6107e8899845ad3d59bd9653f200f220920489ca2b5937696c31836040516114f79190612749565b60405180910390a3505050565b61150f848484611130565b61151b84848484611991565b61155a576040517f08c379a0000000000000000000000000000000000000000000000000000000008152600401611551906127c4565b60405180910390fd5b50505050565b606060405180602001604052806000815250905090565b606061158282610f8f565b600061158c611560565b905060008151116115ac57604051806020016040528060008152506115d7565b806115b684611b28565b6040516020016115c79291906125f1565b6040516020818303038152906040525b915050919050565b600081600001549050919050565b6060600082519050600081141561161657604051806020016040528060008152509150506117a6565b6000600360028361162791906129f8565b6116319190612a4e565b600461163d9190612a7f565b9050600060208261164e91906129f8565b67ffffffffffffffff81111561168d577f4e487b7100000000000000000000000000000000000000000000000000000000600052604160045260246000fd5b6040519080825280601f01601f1916602001820160405280156116bf5781602001600182028036833780820191505090505b5090506000604051806060016040528060408152602001613236604091399050600181016020830160005b868110156117635760038101905062ffffff818a015116603f8160121c168401518060081b905060ff603f83600c1c1686015116810190508060081b905060ff603f8360061c1686015116810190508060081b905060ff603f831686015116810190508060e01b905080845260048401935050506116ea565b50600386066001811461177d576002811461178d57611798565b613d3d60f01b6002830352611798565b603d60f81b60018303525b508484525050819450505050505b919050565b6117c5828260405180602001604052806000815250611cd5565b5050565b6117d28261191b565b611811576040517f08c379a000000000000000000000000000000000000000000000000000000000815260040161180890612884565b60405180910390fd5b80600660008481526020019081526020016000209080519060200190611838929190611f2d565b505050565b6118d783838360405160240161185593929190612786565b6040516020818303038152906040527fe3849f79000000000000000000000000000000000000000000000000000000007bffffffffffffffffffffffffffffffffffffffffffffffffffffffff19166020820180517bffffffffffffffffffffffffffffffffffffffffffffffffffffffff83818316178352505050506118f2565b505050565b6001816000016000828254019250508190555050565b60008151905060006a636f6e736f6c652e6c6f679050602083016000808483855afa5050505050565b60008073ffffffffffffffffffffffffffffffffffffffff166002600084815260200190815260200160002060009054906101000a900473ffffffffffffffffffffffffffffffffffffffff1673ffffffffffffffffffffffffffffffffffffffff1614159050919050565b505050565b505050565b60006119b28473ffffffffffffffffffffffffffffffffffffffff16611d30565b15611b1b578373ffffffffffffffffffffffffffffffffffffffff1663150b7a026119db610fda565b8786866040518563ffffffff1660e01b81526004016119fd94939291906126d4565b602060405180830381600087803b158015611a1757600080fd5b505af1925050508015611a4857506040513d601f19601f82011682018060405250810190611a459190612271565b60015b611acb573d8060008114611a78576040519150601f19603f3d011682016040523d82523d6000602084013e611a7d565b606091505b50600081511415611ac3576040517f08c379a0000000000000000000000000000000000000000000000000000000008152600401611aba906127c4565b60405180910390fd5b805181602001fd5b63150b7a0260e01b7bffffffffffffffffffffffffffffffffffffffffffffffffffffffff1916817bffffffffffffffffffffffffffffffffffffffffffffffffffffffff191614915050611b20565b600190505b949350505050565b60606000821415611b70576040518060400160405280600181526020017f30000000000000000000000000000000000000000000000000000000000000008152509050611cd0565b600082905060005b60008214611ba2578080611b8b90612c26565b915050600a82611b9b9190612a4e565b9150611b78565b60008167ffffffffffffffff811115611be4577f4e487b7100000000000000000000000000000000000000000000000000000000600052604160045260246000fd5b6040519080825280601f01601f191660200182016040528015611c165781602001600182028036833780820191505090505b5090505b60008514611cc957600182611c2f9190612ad9565b9150600a85611c3e9190612c9d565b6030611c4a91906129f8565b60f81b818381518110611c86577f4e487b7100000000000000000000000000000000000000000000000000000000600052603260045260246000fd5b60200101907effffffffffffffffffffffffffffffffffffffffffffffffffffffffffffff1916908160001a905350600a85611cc29190612a4e565b9450611c1a565b8093505050505b919050565b611cdf8383611d53565b611cec6000848484611991565b611d2b576040517f08c379a0000000000000000000000000000000000000000000000000000000008152600401611d22906127c4565b60405180910390fd5b505050565b6000808273ffffffffffffffffffffffffffffffffffffffff163b119050919050565b600073ffffffffffffffffffffffffffffffffffffffff168273ffffffffffffffffffffffffffffffffffffffff161415611dc3576040517f08c379a0000000000000000000000000000000000000000000000000000000008152600401611dba906128c4565b60405180910390fd5b611dcc8161191b565b15611e0c576040517f08c379a0000000000000000000000000000000000000000000000000000000008152600401611e0390612804565b60405180910390fd5b611e1860008383611987565b6001600360008473ffffffffffffffffffffffffffffffffffffffff1673ffffffffffffffffffffffffffffffffffffffff1681526020019081526020016000206000828254611e6891906129f8565b92505081905550816002600083815260200190815260200160002060006101000a81548173ffffffffffffffffffffffffffffffffffffffff021916908373ffffffffffffffffffffffffffffffffffffffff160217905550808273ffffffffffffffffffffffffffffffffffffffff16600073ffffffffffffffffffffffffffffffffffffffff167fddf252ad1be2c89b69c2b068fc378daa952ba7f163c4a11628f55a4df523b3ef60405160405180910390a4611f296000838361198c565b5050565b828054611f3990612bc3565b90600052602060002090601f016020900481019282611f5b5760008555611fa2565b82601f10611f7457805160ff1916838001178555611fa2565b82800160010185558215611fa2579182015b82811115611fa1578251825591602001919060010190611f86565b5b509050611faf9190611fb3565b5090565b5b80821115611fcc576000816000905550600101611fb4565b5090565b6000611fe3611fde84612984565b61295f565b905082815260208101848484011115611ffb57600080fd5b612006848285612b81565b509392505050565b60008135905061201d816131b4565b92915050565b600081359050612032816131cb565b92915050565b600081359050612047816131e2565b92915050565b60008151905061205c816131e2565b92915050565b600082601f83011261207357600080fd5b8135612083848260208601611fd0565b91505092915050565b60008135905061209b816131f9565b92915050565b6000602082840312156120b357600080fd5b60006120c18482850161200e565b91505092915050565b600080604083850312156120dd57600080fd5b60006120eb8582860161200e565b92505060206120fc8582860161200e565b9150509250929050565b60008060006060848603121561211b57600080fd5b60006121298682870161200e565b935050602061213a8682870161200e565b925050604061214b8682870161208c565b9150509250925092565b6000806000806080858703121561216b57600080fd5b60006121798782880161200e565b945050602061218a8782880161200e565b935050604061219b8782880161208c565b925050606085013567ffffffffffffffff8111156121b857600080fd5b6121c487828801612062565b91505092959194509250565b600080604083850312156121e357600080fd5b60006121f18582860161200e565b925050602061220285828601612023565b9150509250929050565b6000806040838503121561221f57600080fd5b600061222d8582860161200e565b925050602061223e8582860161208c565b9150509250929050565b60006020828403121561225a57600080fd5b600061226884828501612038565b91505092915050565b60006020828403121561228357600080fd5b60006122918482850161204d565b91505092915050565b6000602082840312156122ac57600080fd5b60006122ba8482850161208c565b91505092915050565b6122cc81612b0d565b82525050565b6122e36122de82612b0d565b612c6f565b82525050565b6122f281612b1f565b82525050565b6000612303826129b5565b61230d81856129cb565b935061231d818560208601612b90565b61232681612d8a565b840191505092915050565b600061233c826129c0565b61234681856129dc565b9350612356818560208601612b90565b61235f81612d8a565b840191505092915050565b6000612375826129c0565b61237f81856129ed565b935061238f818560208601612b90565b80840191505092915050565b60006123a86032836129dc565b91506123b382612da8565b604082019050919050565b60006123cb6025836129dc565b91506123d682612df7565b604082019050919050565b60006123ee601c836129dc565b91506123f982612e46565b602082019050919050565b60006124116024836129dc565b915061241c82612e6f565b604082019050919050565b60006124346019836129dc565b915061243f82612ebe565b602082019050919050565b6000612457604c836129ed565b915061246282612ee7565b604c82019050919050565b600061247a6029836129dc565b915061248582612f5c565b604082019050919050565b600061249d602e836129dc565b91506124a882612fab565b604082019050919050565b60006124c06002836129ed565b91506124cb82612ffa565b600282019050919050565b60006124e3603e836129dc565b91506124ee82613023565b604082019050919050565b60006125066020836129dc565b915061251182613072565b602082019050919050565b6000612529600a836129ed565b91506125348261309b565b600a82019050919050565b600061254c6018836129dc565b9150612557826130c4565b602082019050919050565b600061256f6021836129dc565b915061257a826130ed565b604082019050919050565b6000612592601d836129ed565b915061259d8261313c565b601d82019050919050565b60006125b5602e836129dc565b91506125c082613165565b604082019050919050565b6125d481612b77565b82525050565b6125eb6125e682612b77565b612c93565b82525050565b60006125fd828561236a565b9150612609828461236a565b91508190509392505050565b60006126208261251c565b915061262c828561236a565b91506126378261244a565b9150612643828461236a565b915061264e826124b3565b91508190509392505050565b600061266582612585565b9150612671828461236a565b915081905092915050565b600061268882866125da565b60208201915061269882856122d2565b6014820191506126a882846125da565b602082019150819050949350505050565b60006020820190506126ce60008301846122c3565b92915050565b60006080820190506126e960008301876122c3565b6126f660208301866122c3565b61270360408301856125cb565b818103606083015261271581846122f8565b905095945050505050565b600060408201905061273560008301856122c3565b61274260208301846125cb565b9392505050565b600060208201905061275e60008301846122e9565b92915050565b6000602082019050818103600083015261277e8184612331565b905092915050565b600060608201905081810360008301526127a08186612331565b90506127af60208301856125cb565b6127bc60408301846122c3565b949350505050565b600060208201905081810360008301526127dd8161239b565b9050919050565b600060208201905081810360008301526127fd816123be565b9050919050565b6000602082019050818103600083015261281d816123e1565b9050919050565b6000602082019050818103600083015261283d81612404565b9050919050565b6000602082019050818103600083015261285d81612427565b9050919050565b6000602082019050818103600083015261287d8161246d565b9050919050565b6000602082019050818103600083015261289d81612490565b9050919050565b600060208201905081810360008301526128bd816124d6565b9050919050565b600060208201905081810360008301526128dd816124f9565b9050919050565b600060208201905081810360008301526128fd8161253f565b9050919050565b6000602082019050818103600083015261291d81612562565b9050919050565b6000602082019050818103600083015261293d816125a8565b9050919050565b600060208201905061295960008301846125cb565b92915050565b600061296961297a565b90506129758282612bf5565b919050565b6000604051905090565b600067ffffffffffffffff82111561299f5761299e612d5b565b5b6129a882612d8a565b9050602081019050919050565b600081519050919050565b600081519050919050565b600082825260208201905092915050565b600082825260208201905092915050565b600081905092915050565b6000612a0382612b77565b9150612a0e83612b77565b9250827fffffffffffffffffffffffffffffffffffffffffffffffffffffffffffffffff03821115612a4357612a42612cce565b5b828201905092915050565b6000612a5982612b77565b9150612a6483612b77565b925082612a7457612a73612cfd565b5b828204905092915050565b6000612a8a82612b77565b9150612a9583612b77565b9250817fffffffffffffffffffffffffffffffffffffffffffffffffffffffffffffffff0483118215151615612ace57612acd612cce565b5b828202905092915050565b6000612ae482612b77565b9150612aef83612b77565b925082821015612b0257612b01612cce565b5b828203905092915050565b6000612b1882612b57565b9050919050565b60008115159050919050565b60007fffffffff0000000000000000000000000000000000000000000000000000000082169050919050565b600073ffffffffffffffffffffffffffffffffffffffff82169050919050565b6000819050919050565b82818337600083830152505050565b60005b83811015612bae578082015181840152602081019050612b93565b83811115612bbd576000848401525b50505050565b60006002820490506001821680612bdb57607f821691505b60208210811415612bef57612bee612d2c565b5b50919050565b612bfe82612d8a565b810181811067ffffffffffffffff82111715612c1d57612c1c612d5b565b5b80604052505050565b6000612c3182612b77565b91507fffffffffffffffffffffffffffffffffffffffffffffffffffffffffffffffff821415612c6457612c63612cce565b5b600182019050919050565b6000612c7a82612c81565b9050919050565b6000612c8c82612d9b565b9050919050565b6000819050919050565b6000612ca882612b77565b9150612cb383612b77565b925082612cc357612cc2612cfd565b5b828206905092915050565b7f4e487b7100000000000000000000000000000000000000000000000000000000600052601160045260246000fd5b7f4e487b7100000000000000000000000000000000000000000000000000000000600052601260045260246000fd5b7f4e487b7100000000000000000000000000000000000000000000000000000000600052602260045260246000fd5b7f4e487b7100000000000000000000000000000000000000000000000000000000600052604160045260246000fd5b6000601f19601f8301169050919050565b60008160601b9050919050565b7f4552433732313a207472616e7366657220746f206e6f6e20455243373231526560008201527f63656976657220696d706c656d656e7465720000000000000000000000000000602082015250565b7f4552433732313a207472616e736665722066726f6d20696e636f72726563742060008201527f6f776e6572000000000000000000000000000000000000000000000000000000602082015250565b7f4552433732313a20746f6b656e20616c7265616479206d696e74656400000000600082015250565b7f4552433732313a207472616e7366657220746f20746865207a65726f2061646460008201527f7265737300000000000000000000000000000000000000000000000000000000602082015250565b7f4552433732313a20617070726f766520746f2063616c6c657200000000000000600082015250565b7f222c20226465736372697074696f6e223a20224120686967686c79206163636c60008201527f61696d656420636f6c6c656374696f6e206f6620776569726420676966732e2260208201527f2c2022696d616765223a20220000000000000000000000000000000000000000604082015250565b7f4552433732313a2061646472657373207a65726f206973206e6f74206120766160008201527f6c6964206f776e65720000000000000000000000000000000000000000000000602082015250565b7f45524337323155524953746f726167653a2055524920736574206f66206e6f6e60008201527f6578697374656e7420746f6b656e000000000000000000000000000000000000602082015250565b7f227d000000000000000000000000000000000000000000000000000000000000600082015250565b7f4552433732313a20617070726f76652063616c6c6572206973206e6f7420746f60008201527f6b656e206f776e6572206e6f7220617070726f76656420666f7220616c6c0000602082015250565b7f4552433732313a206d696e7420746f20746865207a65726f2061646472657373600082015250565b7f7b226e616d65223a202200000000000000000000000000000000000000000000600082015250565b7f4552433732313a20696e76616c696420746f6b656e2049440000000000000000600082015250565b7f4552433732313a20617070726f76616c20746f2063757272656e74206f776e6560008201527f7200000000000000000000000000000000000000000000000000000000000000602082015250565b7f646174613a6170706c69636174696f6e2f6a736f6e3b6261736536342c000000600082015250565b7f4552433732313a2063616c6c6572206973206e6f7420746f6b656e206f776e6560008201527f72206e6f7220617070726f766564000000000000000000000000000000000000602082015250565b6131bd81612b0d565b81146131c857600080fd5b50565b6131d481612b1f565b81146131df57600080fd5b50565b6131eb81612b2b565b81146131f657600080fd5b50565b61320281612b77565b811461320d57600080fd5b5056fe416e204e465420772f20494420257320686173206265656e206d696e74656420746f2025734142434445464748494a4b4c4d4e4f505152535455565758595a6162636465666768696a6b6c6d6e6f707172737475767778797a303132333435363738392b2fa26469706673582212209496144075bcc85ec5d5c8e91d5763ca7c318fc1360bb47fad8d20451036cfd764736f6c6343000801003368747470733a2f2f6d656469612e67697068792e636f6d2f6d656469612f4a52453341764c735352586733363046366c2f67697068792e67696668747470733a2f2f6d656469612e67697068792e636f6d2f6d656469612f334f77613054575971486935525a5947716c2f67697068792e67696668747470733a2f2f67697068792e636f6d2f636c6970732f68616d6c65742d6d656d652d656d6f74696f6e616c2d64616d6167652d6439503548666858524e526a394a4450653968747470733a2f2f6d656469612e67697068792e636f6d2f6d656469612f4141736a376a6472486a7470362f67697068792e67696668747470733a2f2f6d656469612e67697068792e636f6d2f6d656469612f6263724f523273746b36744b497871504f5a2f67697068792e67696668747470733a2f2f6d656469612e67697068792e636f6d2f6d656469612f63463751714f354459646674362f67697068792e67696668747470733a2f2f6d656469612e67697068792e636f6d2f6d656469612f483543384365764e4d627042714e71466a6c2f67697068792e67696668747470733a2f2f6d656469612e67697068792e636f6d2f6d656469612f6b6439426c526f7662504f796b4c424d71582f67697068792e67696668747470733a2f2f6d656469612e67697068792e636f6d2f6d656469612f6c3371324b356a696e416c43686f434c532f67697068792e67696668747470733a2f2f6d656469612e67697068792e636f6d2f6d656469612f6c323279734c653534685a5030777562656b2f67697068792e67696668747470733a2f2f6d656469612e67697068792e636f6d2f6d656469612f426d6d6645546768474f5072572f67697068792e67696668747470733a2f2f6d656469612e67697068792e636f6d2f6d656469612f64336d6c4537756858384b4667456d592f67697068792e67696668747470733a2f2f6d656469612e67697068792e636f6d2f6d656469612f514d486276517644354170596a763739375a2f67697068792e676966",
  "linkReferences": {},
  "deployedLinkReferences": {}
}